:020000040800F2
:1000000000500020110B0008490A00084F0A0008A0
:10001000550A00085B0A0008610A00080000000099
:10002000000000000000000000000000670A000857
:10003000730A0008000000007F0A00088B0A00080D
:10004000590B0008590B0008590B0008590B000800
:10005000590B0008590B0008590B0008590B0008F0
:10006000590B0008590B0008590B0008590B0008E0
:10007000590B0008590B0008590B0008590B0008D0
:10008000590B0008590B0008590B0008590B0008C0
:10009000590B0008590B0008590B0008590B0008B0
:1000A000590B0008590B0008590B0008590B0008A0
:1000B000590B0008590B0008590B0008590B000890
:1000C000590B0008590B0008590B0008590B000880
:1000D000590B0008590B0008590B0008590B000870
:1000E000590B0008590B0008590B000800000000CC
:1000F0000000000000000000000000000000000000
:0C01000000000000000000005FF808F1A3
:10010C0010B5054C237833B9044B13B10448AFF345
:10011C0000800123237010BD70000020000000003F
:10012C00C422000808B5034B1BB103490348AFF3C5
:10013C00008008BD0000000074000020C4220008EC
:10014C0080B582B000AF0346FB71FB7903F001036D
:10015C00002B05D001221021204800F0E7FF04E01D
:10016C00002210211D4800F0E1FFFB7903F002038F
:10017C00002B05D001220821184800F0D7FF04E01D
:10018C0000220821154800F0D1FFFB7903F004038D
:10019C00002B06D001224FF40041114800F0C6FF9D
:1001AC0005E000224FF400410D4800F0BFFFFB7941
:1001BC0003F00803002B06D001224FF480510848AD
:1001CC0000F0B4FF05E000224FF48051044800F029
:1001DC00ADFF00BF0837BD4680BD00BF000C01401D
:1001EC000008014080B582B000AF0346FB710022CD
:1001FC004FF400410C4800F099FF01224FF40041EC
:10020C00094800F093FFFB791846FFF799FF02208D
:10021C0000F000FD00224FF40041034800F086FF7F
:10022C0000BF0837BD4680BD000C014080B500AF53
:10023C000320FFF7D7FF0320FFF7D4FF0320FFF7BE
:10024C00D1FF0220FFF7CEFF0220FFF7CBFF0820E3
:10025C00FFF7C8FF0020FFF7C5FF0820FFF7C2FF1C
:10026C000020FFF7BFFF0120FFF7BCFF0020FFF7C6
:10027C00B9FF0C20FFF7B6FF00BF80BD80B584B07E
:10028C0000AF03460A46FB711346BB7100224FF4C4
:10029C0080412B4800F04AFFBB79013B032B4BD824
:1002AC0001A252F823F000BFC5020008E5020008C5
:1002BC000503000825030008FB79803BFB73FB79E1
:1002CC0080331B11BB73BB7B1846FFF78BFFFB7B8B
:1002DC001846FFF787FF2FE0FB79403BFB73FB7958
:1002EC00C0331B11BB73BB7B1846FFF77BFFFB7B3B
:1002FC001846FFF777FF1FE0FB796C3BFB73FB792C
:10030C0094331B11BB73BB7B1846FFF76BFFFB7B56
:10031C001846FFF767FF0FE0FB792C3BFB73FB796B
:10032C00D4331B11BB73BB7B1846FFF75BFFFB7B06
:10033C001846FFF757FF00BF00BF1037BD4680BD02
:10034C00000C014080B584B000AF0346FB71FB7913
:10035C001B09FB73FB79BB7301224FF480410748E7
:10036C0000F0E4FEFB7B1846FFF73CFFBB7B184616
:10037C00FFF738FF00BF1037BD4680BD000C0140B1
:10038C0080B584B000AF78607B68FB6006E0FB68EA
:10039C005A1CFA601B781846FFF7D4FFFB681B78D1
:1003AC00002BF4D100BF00BF1037BD4680BD00004C
:1003BC0090B585B000AF0446084611461A46234650
:1003CC00FB710346BB710B467B7113463B71FB798A
:1003DC00032B00F03281032B00F3BD81012B03D0E2
:1003EC00022B00F08F80B6E10420FFF7FBFE00200B
:1003FC00FFF7F8FE01224FF48041D94800F096FE39
:10040C00BB791B09FB73BB79BB73FB7B1846FFF7EE
:10041C00E9FEBB7B1846FFF7E5FE7B791B09FB73F6
:10042C007B79BB73FB7B1846FFF7DCFEBB7B184666
:10043C00FFF7D8FE3B791B09FB733B79BB73FB7B46
:10044C001846FFF7CFFEBB7B1846FFF7CBFE97F89D
:10045C0020301B09FB7397F82030BB73FB7B1846CD
:10046C00FFF7C0FEBB7B1846FFF7BCFE97F82430A5
:10047C001B09FB7397F82430BB73FB7B1846FFF703
:10048C00B1FEBB7B1846FFF7ADFE97F828301B0971
:10049C00FB7397F82830BB73FB7B1846FFF7A2FE63
:1004AC00BB7B1846FFF79EFE97F82C301B09FB739D
:1004BC0097F82C30BB73FB7B1846FFF793FEBB7B86
:1004CC001846FFF78FFE97F830301B09FB7397F82F
:1004DC003030BB73FB7B1846FFF784FEBB7B1846A2
:1004EC00FFF780FE00224FF480419D4800F01EFE75
:1004FC000020FFF777FE0120FFF774FE642000F068
:10050C0089FB28E10420FFF76DFE0820FFF76AFE47
:10051C0001224FF48041924800F008FEBB791B0980
:10052C00FB73BB79BB73FB7B1846FFF75BFEBB7B96
:10053C001846FFF757FE7B791B09FB737B79BB735E
:10054C00FB7B1846FFF74EFEBB7B1846FFF74AFEB7
:10055C007B791B09FB737B79BB73FB7B1846FFF71D
:10056C0041FEBB7B1846FFF73DFE3B791B09FB7335
:10057C003B79BB73FB7B1846FFF734FEBB7B1846FD
:10058C00FFF730FE97F820301B09FB7397F82030EB
:10059C00BB73FB7B1846FFF725FEBB7B1846FFF7AA
:1005AC0021FE97F824301B09FB7397F82430BB739A
:1005BC00FB7B1846FFF716FEBB7B1846FFF712FEB7
:1005CC0097F828301B09FB7397F82830BB73FB7B1B
:1005DC001846FFF707FEBB7B1846FFF703FE97F89C
:1005EC002C301B09FB7397F82C30BB73FB7B184624
:1005FC00FFF7F8FDBB7B1846FFF7F4FD97F830309A
:10060C001B09FB7397F83030BB73FB7B1846FFF765
:10061C00E9FDBB7B1846FFF7E5FD00224FF4804156
:10062C004F4800F083FD0020FFF7DCFD0120FFF7B1
:10063C00D9FD642000F0EEFA8DE00420FFF7D2FD26
:10064C00FF20FFF7CFFD01224FF48041444800F01A
:10065C006DFDBB791B09FB73BB79BB73FB7B184628
:10066C00FFF7C0FDBB7B1846FFF7BCFD7B791B0970
:10067C00FB737B79BB73FB7B1846FFF7B3FDBB7B2E
:10068C001846FFF7AFFD3B791B09FB733B79BB7336
:10069C00FB7B1846FFF7A6FDBB7B1846FFF7A2FDB8
:1006AC0097F820301B09FB7397F82030BB73FB7B4A
:1006BC001846FFF797FDBB7B1846FFF793FD97F89D
:1006CC0024301B09FB7397F82430BB73FB7B184653
:1006DC00FFF788FDBB7B1846FFF784FD97F82830A1
:1006EC001B09FB7397F82830BB73FB7B1846FFF78D
:1006FC0079FDBB7B1846FFF775FD97F82C301B096D
:10070C00FB7397F82C30BB73FB7B1846FFF76AFD25
:10071C00BB7B1846FFF766FD97F830301B09FB735F
:10072C0097F83030BB73FB7B1846FFF75BFDBB7B48
:10073C001846FFF757FD00224FF48041084800F09F
:10074C00F5FC0020FFF74EFD0120FFF74BFD642068
:10075C0000F060FA00BF00BF1437BD4690BD00BF6B
:10076C00000C014080B582B000AF0346FB71012242
:10077C004FF480410A4800F0D9FC0020FFF732FD0D
:10078C00FB79013BDBB21846FFF72CFD00224FF43E
:10079C008041034800F0CAFC00BF0837BD4680BD4D
:1007AC00000C014080B586B006AF00F0D1F900F026
:1007BC0057F800F091F8FFF739FD0023049300235C
:1007CC000393042302930E2301931F2300931F23EF
:1007DC001F220A210120FFF7EBFD01210020FFF76A
:1007EC004DFD1948FFF7CCFD02210020FFF746FD17
:1007FC001648FFF7C5FD0120FFF7B4FF144B00228C
:10080C001A701CE0124B1B781A461249124801F060
:10081C00D9F802210E20FFF731FD0F48FFF7B0FD8C
:10082C004FF400510D4800F099FC4FF4FA7000F0B1
:10083C00F1F9074B1B780133DAB2054B1A70044BF4
:10084C001B78622BDED9D9E7DC220008EC220008E9
:10085C008C000020F82200089000002000100140BD
:10086C0080B590B000AF07F118032822002118467C
:10087C0001F0A0F83B1D00221A605A609A60DA6001
:10088C001A610223BB610123BB621023FB620023AC
:10089C007B6307F11803184600F07AFC0346002B23
:1008AC0001D000F093F80F237B600023BB60002382
:1008BC00FB6000233B6100237B613B1D002118463C
:1008CC0000F0E8FE0346002B01D000F07FF800BFDB
:1008DC004037BD4680BD000080B588B000AF07F141
:1008EC00100300221A605A609A60DA60334B9B69DD
:1008FC00324A43F010039361304B9B6903F01003B1
:10090C00FB60FB682D4B9B692C4A43F008039361F9
:10091C002A4B9B6903F00803BB60BB68274B9B69A0
:10092C00264A43F004039361244B9B6903F00403B0
:10093C007B607B6800224FF40051214800F0F6FBED
:10094C0000224CF218011F4800F0F0FB00224FF47B
:10095C0010411D4800F0EAFB4FF400533B610123AA
:10096C007B610023BB610223FB6107F11003194675
:10097C00134800F057FA4CF218033B6101237B61DA
:10098C000023BB610223FB6107F1100319460D48DC
:10099C0000F048FA4FF410433B6101237B610023C4
:1009AC00BB610223FB6107F110031946064800F0F6
:1009BC0039FA00BF2037BD4680BD00BF0010024091
:1009CC0000100140000C01400008014080B400AF51
:1009DC0072B600BFFEE7000080B485B000AF154BC7
:1009EC009B69144A43F001039361124B9B6903F01A
:1009FC000103BB60BB680F4BDB690E4A43F08053AD
:100A0C00D3610C4BDB6903F080537B607B680A4B32
:100A1C005B68FB60FB6823F0E063FB60FB6843F002
:100A2C000073FB60044AFB68536000BF1437BD467B
:100A3C0080BC7047001002400000014080B400AF41
:100A4C00FEE780B400AFFEE780B400AFFEE780B4F1
:100A5C0000AFFEE780B400AFFEE780B400AF00BF8C
:100A6C00BD4680BC704780B400AF00BFBD4680BCA3
:100A7C00704780B400AF00BFBD4680BC704780B5E6
:100A8C0000AF00F0ABF800BF80BD000080B586B0B1
:100A9C0000AF7860144A154BD31A7B617B693B61BC
:100AAC00134B1B68002B02D1114B124A1A60104BCE
:100ABC001A687B6813443A699A4207D200F050FFD7
:100ACC0003460C221A604FF0FF3309E0084B1B68F9
:100ADC00FB60074B1A687B681344054A1360FB687C
:100AEC0018461837BD4680BD005000200004000099
:100AFC0094000020B000002080B400AF00BFBD46C1
:100B0C0080BC70470C480D490D4A002302E0D458B4
:100B1C00C4500433C4188C42F9D30A4A0A4C00233B
:100B2C0001E013600432A242FBD3FFF7E5FF00F0B3
:100B3C001DFFFFF737FE70470000002070000020FB
:100B4C005C23000870000020AC000020FEE70000D1
:100B5C0080B500AF084B1B68074A43F010031360C5
:100B6C00032000F02BF90F2000F008F8FFF734FFFA
:100B7C000023184680BD00BF0020024080B582B023
:100B8C0000AF7860124B1A68124B1B7819464FF461
:100B9C007A73B3FBF1F3B2FBF3F3184600F035F9BB
:100BAC000346002B01D001230EE07B680F2B0AD8E3
:100BBC00002279684FF0FF3000F00BF9064A7B6891
:100BCC001360002300E0012318460837BD4680BDA2
:100BDC0000000020080000200400002080B400AFBA
:100BEC00054B1B781A46054B1B681344034A1360CC
:100BFC0000BFBD4680BC7047080000209800002054
:100C0C0080B400AF024B1B681846BD4680BC7047D1
:100C1C009800002080B584B000AF7860FFF7F0FF3B
:100C2C00B8607B68FB60FB68B3F1FF3F05D00A4BF3
:100C3C001B781A46FB681344FB6000BFFFF7E0FF0C
:100C4C000246BB68D31AFA689A42F7D800BF00BFB5
:100C5C001037BD4680BD00BF0800002080B485B0B1
:100C6C0000AF78607B6803F00703FB600C4BDB681C
:100C7C00BB60BA684FF6FF031340BB60FB681A02F7
:100C8C00BB68134343F0BF6343F40033BB60044AB7
:100C9C00BB68D36000BF1437BD4680BC704700BF33
:100CAC0000ED00E080B400AF044BDB681B0A03F0DE
:100CBC0007031846BD4680BC704700BF00ED00E03E
:100CCC0080B483B000AF03463960FB7197F90730ED
:100CDC00002B0ADB3B68DAB20C4997F9073012019A
:100CEC00D2B20B4483F800230AE03B68DAB208491D
:100CFC00FB7903F00F03043B1201D2B20B441A76BA
:100D0C0000BF0C37BD4680BC704700BF00E100E05F
:100D1C0000ED00E080B489B000AFF860B9607A6093
:100D2C00FB6803F00703FB61FB69C3F10703042BAA
:100D3C0028BF0423BB61FB690433062B02D9FB6972
:100D4C00033B00E000237B614FF0FF32BB6902FAEA
:100D5C0003F3DA43BB681A407B699A404FF0FF31CA
:100D6C007B6901FA03F3D9437B680B4013431846A4
:100D7C002437BD4680BC704780B582B000AF786028
:100D8C007B68013BB3F1807F01D301230FE00A4A5A
:100D9C007B68013B53600F214FF0FF30FFF790FF52
:100DAC00054B00229A60044B07221A600023184658
:100DBC000837BD4680BD00BF10E000E080B582B0B2
:100DCC0000AF78607868FFF749FF00BF0837BD4671
:100DDC0080BD80B586B000AF0346B9607A60FB7306
:100DEC0000237B61FFF75EFF78617A68B9687869E8
:100DFC00FFF790FF024697F90F3011461846FFF7A0
:100E0C005FFF00BF1837BD4680BD80B582B000AF14
:100E1C0078607868FFF7B0FF034618460837BD4680
:100E2C0080BD000080B48BB000AF786039600023C7
:100E3C007B6200233B6269E101227B6A02FA03F3C5
:100E4C00FB613B681B68FA691340BB61BA69FB69BB
:100E5C009A4240F058813B685B689A4A93425ED054
:100E6C00984A934275D8984A934258D0964A9342DE
:100E7C006FD8964A934252D0944A934269D8944A76
:100E8C0093424CD0924A934263D8924A934246D0B2
:100E9C00904A93425DD8122B2AD8122B59D801A212
:100EAC0052F823F02B0F0008050F0008170F00084D
:100EBC00590F00085F0F00085F0F00085F0F000854
:100ECC005F0F00085F0F00085F0F00085F0F00083E
:100EDC005F0F00085F0F00085F0F00085F0F00082E
:100EEC005F0F00085F0F00080D0F0008210F0008AE
:100EFC00794A934213D02CE03B68DB683B6229E0D3
:100F0C003B68DB6804333B6224E03B68DB680833F6
:100F1C003B621FE03B68DB680C333B621AE03B68CA
:100F2C009B68002B02D104233B6213E03B689B6857
:100F3C00012B05D108233B627B68FA691A6109E031
:100F4C0008233B627B68FA695A6103E000233B6229
:100F5C0000E000BFBB69FF2B01D87B6801E07B6818
:100F6C0004337B61BB69FF2B02D87B6A9B0002E0D8
:100F7C007B6A083B9B003B617B691A680F213B69CC
:100F8C0001FA03F3DB431A40396A3B6901FA03F3B4
:100F9C001A437B691A603B685B6803F08053002B33
:100FAC0000F0B1804D4B9B694C4A43F001039361B7
:100FBC004A4B9B6903F00103BB60BB68484A7B6AE0
:100FCC009B08023352F82330FB607B6A03F0030367
:100FDC009B000F2202FA03F3DB43FA681340FB6019
:100FEC007B68404A934213D07B683F4A93420DD0B2
:100FFC007B683E4A934207D07B683D4A934201D1BD
:10100C00032306E0042304E0022302E0012300E0B2
:10101C0000237A6A02F0030292009340FA681343A9
:10102C00FB602F497B6A9B080233FA6841F8232046
:10103C003B685B6803F48033002B06D02D4B1A6899
:10104C002C49BB6913430B6006E02A4B1A68BB6939
:10105C00DB43284913400B603B685B6803F40033A7
:10106C00002B06D0234B5A682249BB6913434B60B3
:10107C0006E0204B5A68BB69DB431E4913404B60AA
:10108C003B685B6803F48013002B06D0194B9A68FD
:10109C001849BB6913438B6006E0164B9A68BB6911
:1010AC00DB43144913408B603B685B6803F400130B
:1010BC00002B21D00F4BDA680E49BB691343CB6070
:1010CC0021E000BF0000321000003110000022109F
:1010DC00000021100000121000001110001002403E
:1010EC000000014000080140000C014000100140CC
:1010FC0000140140000401400B4BDA68BB69DB4370
:10110C0009491340CB607B6A01337B623B681A68E8
:10111C007B6A22FA03F3002B7FF48EAE00BF00BF74
:10112C002C37BD4680BC70470004014080B483B0AE
:10113C0000AF78600B467B8013467B707B78002B6E
:10114C0003D07A887B681A6103E07B881A047B6879
:10115C001A6100BF0C37BD4680BC704780B485B0A7
:10116C0000AF78600B467B807B68DB68FB607A881D
:10117C00FB6813401A04FB68D9437B880B401A4365
:10118C007B681A6100BF1437BD4680BC70470000F5
:10119C0080B586B000AF78607B68002B01D101234D
:1011AC0072E27B681B6803F00103002B00F0878060
:1011BC00924B5B6803F00C03042B0CD08F4B5B68D9
:1011CC0003F00C03082B12D18C4B5B6803F48033B7
:1011DC00B3F5803F0BD1894B1B6803F40033002B14
:1011EC006CD07B685B68002B68D101234CE27B6878
:1011FC005B68B3F5803F06D1804B1B687F4A43F494
:10120C00803313602EE07B685B68002B0CD17B4B2A
:10121C001B687A4A23F480331360784B1B68774A37
:10122C0023F4802313601DE07B685B68B3F5A02F6B
:10123C000CD1724B1B68714A43F4802313606F4BC3
:10124C001B686E4A43F4803313600BE06B4B1B68D6
:10125C006A4A23F480331360684B1B68674A23F493
:10126C00802313607B685B68002B13D0FFF7C8FCEE
:10127C00386108E0FFF7C4FC02463B69D31A642BC3
:10128C0001D9032300E25D4B1B6803F40033002BF0
:10129C00F0D014E0FFF7B4FC386108E0FFF7B0FCC5
:1012AC0002463B69D31A642B01D90323ECE1534B5F
:1012BC001B6803F40033002BF0D100E000BF7B6807
:1012CC001B6803F00203002B63D04C4B5B6803F0EC
:1012DC000C03002B0BD0494B5B6803F00C03082B61
:1012EC001CD1464B5B6803F48033002B16D1434B67
:1012FC001B6803F00203002B05D07B681B69012BD4
:10130C0001D00123C0E13D4B1B6823F0F8027B6840
:10131C005B69DB00394913430B603AE07B681B695E
:10132C00002B20D0364B01221A60FFF769FC386184
:10133C0008E0FFF765FC02463B69D31A022B01D982
:10134C000323A1E12D4B1B6803F00203002BF0D00B
:10135C002A4B1B6823F0F8027B685B69DB0027498A
:10136C0013430B6015E0264B00221A60FFF748FC74
:10137C00386108E0FFF744FC02463B69D31A022BA4
:10138C0001D9032380E11D4B1B6803F00203002BE2
:10139C00F0D17B681B6803F00803002B3AD07B6804
:1013AC009B69002B19D0174B01221A60FFF728FC00
:1013BC00386108E0FFF724FC02463B69D31A022B84
:1013CC0001D9032360E10D4B5B6A03F00203002B90
:1013DC00F0D0012000F0A6FA1CE00A4B00221A60A3
:1013EC00FFF70EFC38610FE0FFF70AFC02463B6981
:1013FC00D31A022B08D9032346E100BF0010024088
:10140C000000424280044242924B5B6A03F00203AA
:10141C00002BE9D17B681B6803F00403002B00F060
:10142C00A6800023FB758B4BDB6903F08053002BEC
:10143C000DD1884BDB69874A43F08053D361854BD0
:10144C00DB6903F08053BB60BB680123FB75824BE7
:10145C001B6803F48073002B18D17F4B1B687E4AEA
:10146C0043F480731360FFF7CBFB386108E0FFF7A0
:10147C00C7FB02463B69D31A642B01D9032303E152
:10148C00754B1B6803F48073002BF0D07B68DB6812
:10149C00012B06D16F4B1B6A6E4A43F0010313629A
:1014AC002DE07B68DB68002B0CD16A4B1B6A694A08
:1014BC0023F001031362674B1B6A664A23F0040393
:1014CC0013621CE07B68DB68052B0CD1614B1B6A3B
:1014DC00604A43F0040313625E4B1B6A5D4A43F09F
:1014EC00010313620BE05B4B1B6A5A4A23F00103A6
:1014FC001362584B1B6A574A23F0040313627B6830
:10150C00DB68002B15D0FFF77BFB38610AE0FFF797
:10151C0077FB02463B69D31A41F28832934201D9D8
:10152C000323B1E04B4B1B6A03F00203002BEED0FC
:10153C0014E0FFF765FB38610AE0FFF761FB024638
:10154C003B69D31A41F28832934201D903239BE0C1
:10155C00404B1B6A03F00203002BEED1FB7D012BE9
:10156C0005D13C4BDB693B4A23F08053D3617B684C
:10157C00DB69002B00F08780364B5B6803F00C03B3
:10158C00082B61D07B68DB69022B46D1334B0022E0
:10159C001A60FFF735FB386108E0FFF731FB0246B4
:1015AC003B69D31A022B01D903236DE0294B1B682D
:1015BC0003F00073002BF0D17B681B6AB3F5803FFE
:1015CC0008D1244B5B6823F400327B689B6821496B
:1015DC0013434B601F4B5B6823F474127B68196ACE
:1015EC007B685B6A0B431B4913434B601B4B01220B
:1015FC001A60FFF705FB386108E0FFF701FB0246B4
:10160C003B69D31A022B01D903233DE0114B1B6814
:10161C0003F00073002BF0D035E0104B00221A6061
:10162C00FFF7EEFA386108E0FFF7EAFA02463B6989
:10163C00D31A022B01D9032326E0064B1B6803F0B7
:10164C000073002BF0D11EE07B68DB69012B07D106
:10165C00012319E00010024000700040600042427B
:10166C000B4B5B68FB60FB6803F480327B681B6A86
:10167C009A4206D1FB6803F470127B685B6A9A424B
:10168C0001D0012300E0002318461837BD4680BD69
:10169C000010024080B584B000AF786039607B6880
:1016AC00002B01D10123D0E06A4B1B6803F0070328
:1016BC003A689A4210D9674B1B6823F007026549B8
:1016CC003B6813430B60634B1B6803F007033A68DA
:1016DC009A4201D00123B8E07B681B6803F0020337
:1016EC00002B20D07B681B6803F00403002B05D073
:1016FC00594B5B68584A43F4E06353607B681B6842
:10170C0003F00803002B05D0534B5B68524A43F49B
:10171C0060535360504B5B6823F0F0027B689B680E
:10172C004D4913434B607B681B6803F00103002B8E
:10173C0040D07B685B68012B07D1474B1B6803F4D7
:10174C000033002B15D101237FE07B685B68022BF3
:10175C0007D1414B1B6803F00073002B09D1012307
:10176C0073E03D4B1B6803F00203002B01D10123F6
:10177C006BE0394B5B6823F003027B685B6836498E
:10178C0013434B60FFF73CFAF8600AE0FFF738FAB6
:10179C000246FB68D31A41F28832934201D90323E3
:1017AC0053E02D4B5B6803F00C027B685B689B007D
:1017BC009A42EBD1274B1B6803F007033A689A4215
:1017CC0010D2244B1B6823F0070222493B681343B9
:1017DC000B60204B1B6803F007033A689A4201D058
:1017EC00012332E07B681B6803F00403002B08D054
:1017FC00194B5B6823F4E0627B68DB681649134382
:10180C004B607B681B6803F00803002B09D0124B5C
:10181C005B6823F460527B681B69DB000E49134341
:10182C004B6000F021F802460B4B5B681B0903F080
:10183C000F030A49CB5C22FA03F3094A1360094BE4
:10184C001B681846FFF79AF9002318461037BD4657
:10185C0080BD00BF00200240001002401023000891
:10186C00000000200400002090B48AB000AF294B87
:10187C003C1D0FCB84E80F0040F201233B8000237A
:10188C00FB610023BB6100237B6200237B6100238F
:10189C003B62214B5B68FB61FB6903F00C03042B7F
:1018AC0002D0082B03D02BE01C4B3B622BE0FB69D6
:1018BC009B0C03F00F0328333B4413F8243C7B614F
:1018CC00FB6903F48033002B12D0134B5B685B0C69
:1018DC0003F0010328333B4413F8283CBB617B69BC
:1018EC000E4A03FB02F2BB69B2FBF3F37B6204E02A
:1018FC007B690B4A02FB03F37B627B6A3B6202E06F
:10190C00064B3B6200BF3B6A18462837BD4690BC6D
:10191C00704700BF002300080010024000127A003C
:10192C0000093D0080B485B000AF78600A4B1B689D
:10193C000A4AA2FB03235B0A7A6802FB03F3FB60EF
:10194C0000BFFB685A1EFA60002BF9D100BF00BF24
:10195C001437BD4680BC704700000020D34D621088
:10196C00014B1868704700BF0C00002070B50026B2
:10197C000C4D0D4C641BA410A64209D100F09CFC2C
:10198C0000260A4D0A4C641BA410A64205D170BD5A
:10199C0055F8043B98470136EEE755F8043B984759
:1019AC000136F2E75423000854230008542300089E
:1019BC005823000803460244934200D1704703F8B1
:1019CC00011BF9E70EB46FF0004100B59CB01DABE4
:1019DC0002900690079104910848094953F8042B8A
:1019EC000591006802A9019300F068F80022029B9F
:1019FC001A701CB05DF804EB03B070470C000020AB
:101A0C000802FFFF2DE9F0478E6882469E420C4685
:101A1C0090461F4638D88A8912F4906F32D02568C8
:101A2C0009690133A5EB010965694B4405EB4505D3
:101A3C0005EBD5756D109D4238BF1D46530531D54C
:101A4C00294600F06FFB064650B90C234FF0FF30CF
:101A5C00CAF80030A38943F04003A381BDE8F087A6
:101A6C004A46216900F0CEFAA38923F4906343F02F
:101A7C008003A38126614E4426603E466561A5EB3A
:101A8C000905A560BE4200D93E4632464146206853
:101A9C0000F0C6FAA36800209B1BA36023683344A4
:101AAC002360DBE72A4600F0B1FB06460028E1D1B3
:101ABC005046216900F0CEFAC7E700002DE9F04F3F
:101ACC0098468B8907461B060D4614469DB00ED5CD
:101ADC000B6963B9402100F025FB2860286120B90F
:101AEC000C233B604FF0FF30D1E040236B610023AF
:101AFC00099320238DF8293030234FF00109CDF8BC
:101B0C000C80DFF8A4818DF82A3023469A4613F80E
:101B1C00012B0AB1252AF9D1BAEB040B0BD05B4689
:101B2C00224629463846FFF76DFF013000F0AA80A7
:101B3C00099A5A4409929AF80030002B00F0A280BE
:101B4C0000234FF0FF32CDE905230AF1010A04937B
:101B5C0007938DF853301A935446052214F8011B41
:101B6C00514800F041FA049AD8B9D00644BF20235A
:101B7C008DF85330110744BF2B238DF853309AF84E
:101B8C0000302A2B15D0544600204FF00A0C079A2F
:101B9C00214611F8013B303B092B4ED9B0B10792CD
:101BAC0014E0A0EB080309FA03F31343A2460493D1
:101BBC00D2E7039B191D1B680391002BBBBF5B4233
:101BCC0042F0020207930793B8BF049223782E2B9E
:101BDC000CD163782A2B35D1039B02341A1D1B6858
:101BEC000392002BB8BF4FF0FF330593DFF8BCA076
:101BFC0003225046217800F0F7F940B14023A0EBC6
:101C0C000A0003FA00F0049B01340343049314F814
:101C1C00011B062226488DF8281000F0E5F9002853
:101C2C0038D0244B1BBB039B073323F0070308332B
:101C3C000393099B3344099367E70C4601200CFB83
:101C4C000232A5E700234FF00A0C19460134059324
:101C5C00204610F8012B303A092A03D9002BC5D0A5
:101C6C000591C3E7044601230CFB0121F0E703AB0C
:101C7C0000932A463846104B04A9AFF30080421C4F
:101C8C000646D6D1AB895B063FF52CAF09981DB043
:101C9C00BDE8F08F03AB00932A463846064B04A9E7
:101CAC0000F07CF8EBE700BF202300082623000897
:101CBC002A23000800000000111A00082DE9F04743
:101CCC00164699468A680B6907469342B8BF134675
:101CDC00336091F843200C46DDF820800AB10133C3
:101CEC0033602368990642BF33680233336025683A
:101CFC0015F0060506D104F1190AE36832689B1A3F
:101D0C00AB4228DC94F84320131E226818BF012331
:101D1C0092062DD44946384604F14302C04701309F
:101D2C0020D02368E56803F00603042B18BF0025B8
:101D3C0032684FF00006A36808BFAD1A226908BFCD
:101D4C0025EAE5759342C4BF9B1AED181A34B542C7
:101D5C001AD1002008E00123524649463846C047B4
:101D6C00013003D14FF0FF30BDE8F0870135C4E7F7
:101D7C003020E11881F843005A1C94F84510224495
:101D8C00023382F84310C5E7012322464946384600
:101D9C00C0470130E6D00136D9E700002DE9FF47F6
:101DAC000F7E9146782F80460C469A460C9D01F189
:101DBC00430207D8622F0AD8002F00F0D980582F81
:101DCC0000F0A48004F1420584F842703AE0A7F1D7
:101DDC006303152BF6D801A151F823F0411E00081E
:101DEC00551E0008D11D0008D11D0008D11D00088A
:101DFC00D11D0008551E0008D11D0008D11D00087A
:101E0C00D11D0008D11D0008631F0008851E0008A5
:101E1C00451F0008D11D0008D11D0008851F0008B2
:101E2C00D11D0008851E0008D11D0008D11D000819
:101E3C004D1F00082B681A1D1B682A6004F142050F
:101E4C0084F842300123A4E020682968060601F1D9
:101E5C0004030AD50E682B60002E03DA2D2376427C
:101E6C0084F843300A235E4819E00E6810F0400FE6
:101E7C002B6018BF36B2EFE72B682068191D29605C
:101E8C00010601D51E6802E04606FBD51E886F2FA1
:101E9C000CBF08230A235248002184F843106568BC
:101EAC00002DA8BF2168A560A4BF21F0040121600A
:101EBC000EB9002D4DD01546B6FBF3F103FB11679F
:101ECC00C75D05F8017D3746BB420E46F4D9082B99
:101EDC000BD12368DE0708D5236961689942DEBF00
:101EEC00302305F8013C05F1FF35521B22614B46AE
:101EFC0021464046CDF800A003AAFFF7DFFE0130D3
:101F0C004CD14FF0FF3004B0BDE8F087344881F875
:101F1C0045702968236851F8046B29601D0614D597
:101F2C00DF0744BF43F0200323601EB9236823F06E
:101F3C00200323601023AFE7236843F020032360C2
:101F4C007823284884F84530E3E7590648BFB6B2F1
:101F5C00E6E71546BBE72B682668181D6169286003
:101F6C0035061B6801D5196002E07006FBD5198097
:101F7C00002315462361BAE72B6800211A1D2A603D
:101F8C001D686268284600F02FF808B1401B60609D
:101F9C0063682361002384F84330A8E72A46494646
:101FAC0040462369D0470130ABD023689B0713D43C
:101FBC00E068039B9842B8BF1846A4E70123324659
:101FCC0049464046D04701309BD00135E368039920
:101FDC005B1AAB42F2DCEBE7002504F11906F5E7DE
:101FEC003123000842230008034610B5C9B202444D
:101FFC009342184601D1002003E0047801338C424F
:10200C00F6D110BD0A44914200F1FF3300D1704764
:10201C0010B511F8014B914203F8014FF9D110BDE5
:10202C00884210B501EB020402D98442234607D83A
:10203C00431EA14208D011F8012B03F8012FF8E739
:10204C00014602448A4200D110BD13F8014D02F83A
:10205C00014DF7E738B50546002940D051F8043C4E
:10206C000C1F002BB8BFE41800F010F91C4A1368C1
:10207C0033B9636014602846BDE8384000F00CB9F1
:10208C00A34208D9206821188B4201BF19685B68EC
:10209C0009182160EDE71A465B680BB1A342FAD927
:1020AC0011685018A0420BD120680144501883428B
:1020BC001160E0D118685B68014411605360DAE785
:1020CC0002D90C232B60D6E7206821188B4201BF64
:1020DC0019685B680918216063605460CBE738BDF0
:1020EC009C00002070B50E4E0C463168054611B9A7
:1020FC0000F0BCF830602146284600F0B7F8431CCD
:10210C000AD0C41C24F00304A04207D0211A28468C
:10211C0000F0ACF8013001D14FF0FF34204670BD17
:10212C00A00000202DE9F041CD1C25F00305083559
:10213C000C2D38BF0C25002D074601DBA94205D913
:10214C000C2300263B603046BDE8F0812E4E00F09B
:10215C009DF833681C4634BB29463846FFF7C2FF4E
:10216C00431C04464DD134682646002E40D12368CA
:10217C003146384604EB030800F078F880453AD134
:10218C00216803356D1A25F0030508350C2D38BF71
:10219C000C2538462946FFF7A5FF01302BD02368C4
:1021AC002B4423600EE02268521B1ED40B2A16D936
:1021BC006119A342256018BF5960636808BF31607C
:1021CC0062514B60384604F10B0600F065F826F0BE
:1021DC000706231DF21AB6D09B1BA350B3E7626807
:1021EC00A3420CBF32605A60ECE723466468B2E746
:1021FC0034467668B9E70C2338463B6000F04CF85F
:10220C00A1E72560DEE700BF9C0000202DE9F0412E
:10221C00804614460E4621B91146BDE8F041FFF741
:10222C0081BF2AB9FFF716FF25462846BDE8F08185
:10223C0000F038F88442074602D8B4EB500F12D89D
:10224C0021464046FFF76EFF05460028EDD0BC4204
:10225C002246314628BF3A46FFF7D4FE3146404667
:10226C00FFF7F8FEE1E73546DFE7000038B500235D
:10227C00054D044608462B60FEF708FC431C02D1B2
:10228C002B6803B1236038BDA4000020014800F086
:10229C0011B800BFA8000020014800F00CB800BF26
:1022AC00A800002051F8043C181F002BBCBF0B5891
:1022BC00C018704770477047F8B500BFF8BC08BC31
:1022CC009E467047F8B500BFF8BC08BC9E467047E8
:1022DC0020437572736F2043617320554E49000083
:1022EC00437572736F2053746D3332002530327521
:1022FC000000000002030405060708090A0B0C0D78
:10230C000E0F10100000000000000000010203047A
:10231C0006070809232D302B2000686C4C006566DD
:10232C00674546470030313233343536373839411A
:10233C004243444546003031323334353637383930
:08234C00616263646566000034
:04235400310100084B
:042358000D0100086B
:10235C000024F40010000000010000001000002018
:10236C000000000000000000000000000000000061
:10237C000000000000000000000000000000000051
:10238C000000000000000000000000000000000041
:10239C000000000000000000000000000000000031
:1023AC000000000000000000000000000000000021
:1023BC000000000000000000000000000000000011
:0400000508000B11D3
:00000001FF
